:100000000C9462000C948A000C948A000C948A0070
:100010000C948A000C948A000C948A000C948A0038
:100020000C948A000C948A000C948A000C948A0028
:100030000C948A000C948A000C948A000C948A0018
:100040000C94F5020C948A000C948A000C948A009B
:100050000C948A000C948A000C948A000C948A00F8
:100060000C948A000C948A000000000024002700F1
:100070002A0000000000250028002B0000000008D6
:10008000000201000003040700000000000000005F
:1000900000000000230026002900040404040404D6
:1000A0000404020202020202030303030303010227
:1000B00004081020408001020408102001020408F6
:1000C0001020840411241FBECFEFD8E0DEBFCDBFC7
:1000D00011E0A0E0B1E0E6EFFBE002C005900D9278
:1000E000A032B107D9F721E0A0E2B1E001C01D9232
:1000F000A534B207E1F710E0C2E6D0E004C02197D2
:10010000FE010E94F305C136D107C9F70E9484039E
:100110000C94F9050C940000AF92BF92CF92DF923D
:10012000EF92FF920F931F93CF93DF936C017B01AC
:100130008B01040F151FEB015E01AE18BF08C0173D
:10014000D10759F06991D601ED91FC910190F081B0
:10015000E02DC6010995892B79F7C501DF91CF9173
:100160001F910F91FF90EF90DF90CF90BF90AF90D5
:10017000089590E0FC01E458FF4F2491FC01E25502
:10018000FF4F3491FC01E656FF4FE491EE23C9F096
:10019000222339F0233001F1A8F4213019F1223063
:1001A00029F1F0E0EE0FFF1FEE58FF4FA591B4913B
:1001B0008FB7F894EC91611126C030953E233C93A3
:1001C0008FBF08952730A9F02830C9F0243049F7AF
:1001D000809180008F7D03C0809180008F77809315
:1001E0008000DFCF84B58F7784BDDBCF84B58F7D72
:1001F000FBCF8091B0008F778093B000D2CF8091F9
:10020000B0008F7DF9CF3E2BDACFCF93DF9390E014
:10021000FC01E255FF4F249186569F4FFC018491CB
:100220008823D1F090E0880F991FFC01E859FF4F17
:10023000A591B491FC01EE58FF4FC591D491611185
:100240000EC09FB7F8948C91E22FE0958E238C938B
:100250002881E223E8839FBFDF91CF9108958FB774
:10026000F894EC91E22BEC938FBFF6CF3FB7F89464
:100270008091250190912601A0912701B09128013C
:1002800026B5A89B05C02F3F19F00196A11DB11DF1
:100290003FBFBA2FA92F982F8827BC01CD01620F2D
:1002A000711D811D911D42E0660F771F881F991FE8
:1002B0004A95D1F70895089590E080E008958F92CF
:1002C0009F92AF92BF920F931F93CF93DF93CDB7BF
:1002D000DEB7A1970FB6F894DEBF0FBECDBF19A24F
:1002E000423008F44AE08E010F5D1F4F842E912C9E
:1002F000B12CA12CA50194010E94D105E62FB901D2
:10030000CA01EA3044F5E05DD801EE938D01232B5C
:10031000242B252B79F790E080E0109769F0FD0100
:1003200001900020E9F73197AF014A1B5B0BBD013B
:100330008DE291E00E948C00A1960FB6F894DEBF8A
:100340000FBECDBFDF91CF911F910F91BF90AF90A6
:100350009F908F900895E95CD7CFCF93DF93EC0106
:1003600060E08E810E94B90061E08E810E94B90038
:1003700060E08E810E94B9008BE891E00197F1F76F
:10038000DF91CF910895CF92DF92EF92FF920F937A
:100390001F93CF93DF936C017C0187E0E80EF11C83
:1003A000D0E0C0E0062F10E0B8010C2E02C0759519
:1003B00067950A94E2F76170F70181917F010E94CD
:1003C000B9002196C430D10579F7C601DF91CF91EC
:1003D0001F910F91FF90EF90DF90CF900C94AD01A3
:1003E000CF92DF92EF92FF920F931F93CF93DF9301
:1003F000EC01F62E642F8C810E94B9008D818F3F15
:1004000019F060E00E94B9000F2D10E08F8584FF85
:1004100025C06E0187E0C80ED11CF12CE12CB8017B
:100420000E2C02C0759567950A94E2F76170F6018B
:1004300081916F010E94B900FFEFEF1AFF0A88E077
:10044000E816F10461F7CE01DF91CF911F910F9172
:10045000FF90EF90DF90CF900C94AD01B80184E055
:10046000759567958A95E1F7CE010E94C3016F2DBE
:10047000CE01DF91CF911F910F91FF90EF90DF9010
:10048000CF900C94C30140E0682F8DE291E00C9472
:10049000F001CF93DF93823029F490913C01986072
:1004A00090933C01809340011092410180E480933D
:1004B000420180E18093430180E58093440161E043
:1004C000809131010E940501809132018F3F19F026
:1004D00061E00E94050161E0809133010E94050105
:1004E000CDE2D1E09E012D52314080913C0184FD4E
:1004F0000BC084E090E021962817390744F461E0AE
:100500008E810E940501EECF88E090E0F4CF8BE36E
:100510009DE00197F1F760E0809131010E94B90000
:1005200060E0809133010E94B900809132018F3FD9
:1005300019F060E00E94B90080913C0184FD39C04F
:1005400063E08DE291E00E94C301CBE4D6E4CE01EA
:100550000197F1F763E08DE291E00E94C3012197DA
:10056000F1F763E08DE291E00E94C30183E592E040
:100570000197F1F762E08DE291E00E94C301809162
:100580003C0180620E94430284E080933D018CE044
:100590000E94430281E00E9443028BE39FE10197A6
:1005A000F1F782E080933E0186E0DF91CF910C94D9
:1005B000430280620E9443028BE496E40197F1F7C4
:1005C00080913C0180620E94430283E592E00197A2
:1005D000F1F780913C0180620E944302D0CF41E05C
:1005E0000E94F00181E090E008951F920F920FB6F3
:1005F0000F9211242F933F938F939F93AF93BF93A9
:100600008091210190912201A0912301B0912401B8
:100610003091200123E0230F2D3758F50196A11DBD
:10062000B11D209320018093210190932201A0937A
:100630002301B09324018091250190912601A0917E
:100640002701B09128010196A11DB11D80932501BC
:1006500090932601A0932701B0932801BF91AF91F9
:100660009F918F913F912F910F900FBE0F901F90F0
:10067000189526E8230F0296A11DB11DD2CFCF9267
:10068000DF92EF92FF920F931F93E82FF92F05C08F
:10069000015011092109310961F1908196239417C4
:1006A000B9F305C0015011092109310911F19081F7
:1006B00096239413F7CFC12CD12CE12CF12C0AC036
:1006C0008FEFC81AD80AE80AF80A0C151D052E057E
:1006D0003F0579F080818623841791F36C2D7D2D61
:1006E0008E2D9F2D1F910F91FF90EF90DF90CF9057
:1006F000089560E070E080E090E01F910F91FF901E
:10070000EF90DF90CF900895789484B5826084BD97
:1007100084B5816084BD85B5826085BD85B5816005
:1007200085BD80916E00816080936E001092810083
:10073000809181008260809381008091810081603E
:1007400080938100809180008160809380008091FF
:10075000B10084608093B1008091B000816080938B
:10076000B00080917A00846080937A0080917A0052
:10077000826080937A0080917A00816080937A0011
:1007800080917A00806880937A001092C10082E0A4
:100790000E9449024FE050E06CE071E08DE291E090
:1007A0000E948C0061E08DE00E94050160E08CE019
:1007B0000E940501CBE4D0E02AEB222E20E0322E6D
:1007C00036EAA32E30E0B32E40E0842E40E0942E93
:1007D00061E08DE00E94B900CE010197F1F760E081
:1007E0008DE00E94B900CE010197F1F7F10164910B
:1007F000F5018491E82FF0E0EE0FFF1FE057FF4F67
:100800008591949100E412E42FE030E0462F0E949D
:100810003F03611571058105910529F06F5F7F4FD9
:100820008F4F9F4F9F700E94D80426E933E44BE01E
:100830005DE30E943C0520E030E040E05FE30E9481
:100840003C050E94A0046B017C01C0922901D0925A
:100850002A01E0922B01F0922C01E0914001E2305C
:1008600008F050C0E150F0E0E35DFE4F84898068FD
:100870000E9443024AE0C701B601F7FE0EC041E004
:100880006DE28DE291E00E94F00166277727CB01AF
:100890006C197D098E099F094AE00E945F0142E0C0
:1008A00050E06CE171E08DE291E00E948C000E94CA
:1008B00036012B013C0184E6C82ED12CE12CF12C11
:1008C0000E9436016419750986099709683E7340CC
:1008D00081059105A8F3F1E0CF1AD108E108F108EC
:1008E00028EE420E23E0521E611C711CC114D1047B
:1008F000E104F10429F78114910409F469CF0E94FD
:10090000000066CFE1E0AFCFEDE2F1E013821282AA
:1009100084E091E09183808387E084838FEF8583F7
:1009200086E0868383E0878382E0808781E0818719
:100930001286138614861586168617860C9449022D
:100940000E94A7046894B1110C94360508950E9482
:100950001B0588F09F5798F0B92F9927B751B0F031
:10096000E1F0660F771F881F991F1AF0BA95C9F733
:1009700014C0B13091F00E943505B1E008950C9497
:100980003505672F782F8827B85F39F0B93FCCF34A
:10099000869577956795B395D9F73EF490958095B0
:1009A000709561957F4F8F4F9F4F0895E89409C0D0
:1009B00097FB3EF490958095709561957F4F8F4F92
:1009C0009F4F9923A9F0F92F96E9BB279395F695A8
:1009D000879577956795B795F111F8CFFAF4BB0F26
:1009E00011F460FF1BC06F5F7F4F8F4F9F4F16C08A
:1009F000882311F096E911C0772321F09EE8872F14
:100A0000762F05C0662371F096E8862F70E060E0CF
:100A10002AF09A95660F771F881FDAF7880F969548
:100A2000879597F9089557FD9058440F551F59F031
:100A30005F3F71F04795880F97FB991F61F09F3FCB
:100A400079F087950895121613061406551FF2CFF4
:100A50004695F1DF08C0161617061806991FF1CF44
:100A600086957105610508940895E894BB2766276B
:100A70007727CB0197F908950E944F050C94C00584
:100A80000E94B20538F00E94B90520F0952311F0BC
:100A90000C94A9050C94AF0511240C9436050E9402
:100AA000130570F3959FC1F3950F50E0551F629F9A
:100AB000F001729FBB27F00DB11D639FAA27F00DB7
:100AC000B11DAA1F649F6627B00DA11D661F829FDE
:100AD0002227B00DA11D621F739FB00DA11D621FC3
:100AE000839FA00D611D221F749F3327A00D611DE0
:100AF000231F849F600D211D822F762F6A2F1124C2
:100B00009F5750409AF0F1F088234AF0EE0FFF1FF4
:100B1000BB1F661F771F881F91505040A9F79E3F4B
:100B2000510580F00C94A9050C9436055F3FE4F361
:100B3000983ED4F3869577956795B795F795E795A1
:100B40009F5FC1F7FE2B880F911D9695879597F9AA
:100B5000089597F99F6780E870E060E008959FEF3F
:100B600080EC089500240A94161617061806090644
:100B7000089500240A941216130614060506089513
:100B8000092E0394000C11F4882352F0BB0F40F49B
:100B9000BF2B11F460FF04C06F5F7F4F8F4F9F4FDB
:100BA0000895A1E21A2EAA1BBB1BFD010DC0AA1FAE
:100BB000BB1FEE1FFF1FA217B307E407F50720F0C6
:100BC000A21BB30BE40BF50B661F771F881F991F41
:100BD0001A9469F760957095809590959B01AC018A
:100BE000BD01CF010895EE0FFF1F0590F491E02D98
:060BF0000994F894FFCF08
:100BF60000000000EF028C005C015B0170657273FF
:100C06006F6E20646574656374656400636D0000CF
:00000001FF
